{
  "_format": "hh3-artifact-1",
  "contractName": "PredictionMarket",
  "sourceName": "src/contracts-p2/PredictionMarket.sol",
  "abi": [
    {
      "inputs": [
        {
          "internalType": "address",
          "name": "_treasury",
          "type": "address"
        }
      ],
      "stateMutability": "nonpayable",
      "type": "constructor"
    },
    {
      "inputs": [],
      "name": "EnforcedPause",
      "type": "error"
    },
    {
      "inputs": [],
      "name": "ExpectedPause",
      "type": "error"
    },
    {
      "inputs": [
        {
          "internalType": "address",
          "name": "owner",
          "type": "address"
        }
      ],
      "name": "OwnableInvalidOwner",
      "type": "error"
    },
    {
      "inputs": [
        {
          "internalType": "address",
          "name": "account",
          "type": "address"
        }
      ],
      "name": "OwnableUnauthorizedAccount",
      "type": "error"
    },
    {
      "inputs": [],
      "name": "ReentrancyGuardReentrantCall",
      "type": "error"
    },
    {
      "inputs": [
        {
          "internalType": "address",
          "name": "token",
          "type": "address"
        }
      ],
      "name": "SafeERC20FailedOperation",
      "type": "error"
    },
    {
      "anonymous": false,
      "inputs": [
        {
          "indexed": true,
          "internalType": "uint256",
          "name": "marketId",
          "type": "uint256"
        },
        {
          "indexed": true,
          "internalType": "address",
          "name": "user",
          "type": "address"
        },
        {
          "indexed": false,
          "internalType": "bool",
          "name": "isYes",
          "type": "bool"
        },
        {
          "indexed": false,
          "internalType": "uint256",
          "name": "amount",
          "type": "uint256"
        }
      ],
      "name": "BetPlaced",
      "type": "event"
    },
    {
      "anonymous": false,
      "inputs": [
        {
          "indexed": true,
          "internalType": "uint256",
          "name": "marketId",
          "type": "uint256"
        }
      ],
      "name": "MarketCancelled",
      "type": "event"
    },
    {
      "anonymous": false,
      "inputs": [
        {
          "indexed": true,
          "internalType": "uint256",
          "name": "marketId",
          "type": "uint256"
        },
        {
          "indexed": false,
          "internalType": "string",
          "name": "question",
          "type": "string"
        },
        {
          "indexed": false,
          "internalType": "uint256",
          "name": "endTime",
          "type": "uint256"
        }
      ],
      "name": "MarketCreated",
      "type": "event"
    },
    {
      "anonymous": false,
      "inputs": [
        {
          "indexed": true,
          "internalType": "uint256",
          "name": "marketId",
          "type": "uint256"
        },
        {
          "indexed": false,
          "internalType": "uint8",
          "name": "outcome",
          "type": "uint8"
        }
      ],
      "name": "MarketResolved",
      "type": "event"
    },
    {
      "anonymous": false,
      "inputs": [
        {
          "indexed": true,
          "internalType": "address",
          "name": "previousOwner",
          "type": "address"
        },
        {
          "indexed": true,
          "internalType": "address",
          "name": "newOwner",
          "type": "address"
        }
      ],
      "name": "OwnershipTransferred",
      "type": "event"
    },
    {
      "anonymous": false,
      "inputs": [
        {
          "indexed": false,
          "internalType": "address",
          "name": "account",
          "type": "address"
        }
      ],
      "name": "Paused",
      "type": "event"
    },
    {
      "anonymous": false,
      "inputs": [
        {
          "indexed": false,
          "internalType": "address",
          "name": "account",
          "type": "address"
        }
      ],
      "name": "Unpaused",
      "type": "event"
    },
    {
      "anonymous": false,
      "inputs": [
        {
          "indexed": true,
          "internalType": "uint256",
          "name": "marketId",
          "type": "uint256"
        },
        {
          "indexed": true,
          "internalType": "address",
          "name": "user",
          "type": "address"
        },
        {
          "indexed": false,
          "internalType": "uint256",
          "name": "amount",
          "type": "uint256"
        }
      ],
      "name": "WinningsClaimed",
      "type": "event"
    },
    {
      "inputs": [
        {
          "internalType": "address",
          "name": "",
          "type": "address"
        }
      ],
      "name": "allowedTokens",
      "outputs": [
        {
          "internalType": "bool",
          "name": "",
          "type": "bool"
        }
      ],
      "stateMutability": "view",
      "type": "function"
    },
    {
      "inputs": [
        {
          "internalType": "uint256",
          "name": "_marketId",
          "type": "uint256"
        },
        {
          "internalType": "address",
          "name": "_user",
          "type": "address"
        }
      ],
      "name": "calculateWinnings",
      "outputs": [
        {
          "internalType": "uint256",
          "name": "",
          "type": "uint256"
        }
      ],
      "stateMutability": "view",
      "type": "function"
    },
    {
      "inputs": [
        {
          "internalType": "uint256",
          "name": "_marketId",
          "type": "uint256"
        }
      ],
      "name": "cancelMarket",
      "outputs": [],
      "stateMutability": "nonpayable",
      "type": "function"
    },
    {
      "inputs": [
        {
          "internalType": "uint256",
          "name": "_marketId",
          "type": "uint256"
        }
      ],
      "name": "claimRefund",
      "outputs": [],
      "stateMutability": "nonpayable",
      "type": "function"
    },
    {
      "inputs": [
        {
          "internalType": "uint256",
          "name": "_marketId",
          "type": "uint256"
        }
      ],
      "name": "claimWinnings",
      "outputs": [],
      "stateMutability": "nonpayable",
      "type": "function"
    },
    {
      "inputs": [
        {
          "internalType": "string",
          "name": "_question",
          "type": "string"
        },
        {
          "internalType": "string",
          "name": "_description",
          "type": "string"
        },
        {
          "internalType": "string",
          "name": "_category",
          "type": "string"
        },
        {
          "internalType": "uint256",
          "name": "_endTime",
          "type": "uint256"
        },
        {
          "internalType": "address",
          "name": "_token",
          "type": "address"
        },
        {
          "internalType": "uint256",
          "name": "_minBet",
          "type": "uint256"
        },
        {
          "internalType": "uint256",
          "name": "_maxBet",
          "type": "uint256"
        }
      ],
      "name": "createMarket",
      "outputs": [
        {
          "internalType": "uint256",
          "name": "",
          "type": "uint256"
        }
      ],
      "stateMutability": "nonpayable",
      "type": "function"
    },
    {
      "inputs": [
        {
          "internalType": "uint256",
          "name": "_marketId",
          "type": "uint256"
        }
      ],
      "name": "getOdds",
      "outputs": [
        {
          "internalType": "uint256",
          "name": "yesOdds",
          "type": "uint256"
        },
        {
          "internalType": "uint256",
          "name": "noOdds",
          "type": "uint256"
        }
      ],
      "stateMutability": "view",
      "type": "function"
    },
    {
      "inputs": [],
      "name": "marketCount",
      "outputs": [
        {
          "internalType": "uint256",
          "name": "",
          "type": "uint256"
        }
      ],
      "stateMutability": "view",
      "type": "function"
    },
    {
      "inputs": [
        {
          "internalType": "uint256",
          "name": "",
          "type": "uint256"
        }
      ],
      "name": "markets",
      "outputs": [
        {
          "internalType": "uint256",
          "name": "id",
          "type": "uint256"
        },
        {
          "internalType": "string",
          "name": "question",
          "type": "string"
        },
        {
          "internalType": "string",
          "name": "description",
          "type": "string"
        },
        {
          "internalType": "string",
          "name": "category",
          "type": "string"
        },
        {
          "internalType": "uint256",
          "name": "endTime",
          "type": "uint256"
        },
        {
          "internalType": "uint256",
          "name": "totalYesAmount",
          "type": "uint256"
        },
        {
          "internalType": "uint256",
          "name": "totalNoAmount",
          "type": "uint256"
        },
        {
          "internalType": "uint8",
          "name": "outcome",
          "type": "uint8"
        },
        {
          "internalType": "bool",
          "name": "resolved",
          "type": "bool"
        },
        {
          "internalType": "address",
          "name": "token",
          "type": "address"
        },
        {
          "internalType": "uint256",
          "name": "minBet",
          "type": "uint256"
        },
        {
          "internalType": "uint256",
          "name": "maxBet",
          "type": "uint256"
        }
      ],
      "stateMutability": "view",
      "type": "function"
    },
    {
      "inputs": [],
      "name": "owner",
      "outputs": [
        {
          "internalType": "address",
          "name": "",
          "type": "address"
        }
      ],
      "stateMutability": "view",
      "type": "function"
    },
    {
      "inputs": [],
      "name": "pause",
      "outputs": [],
      "stateMutability": "nonpayable",
      "type": "function"
    },
    {
      "inputs": [],
      "name": "paused",
      "outputs": [
        {
          "internalType": "bool",
          "name": "",
          "type": "bool"
        }
      ],
      "stateMutability": "view",
      "type": "function"
    },
    {
      "inputs": [
        {
          "internalType": "uint256",
          "name": "_marketId",
          "type": "uint256"
        },
        {
          "internalType": "bool",
          "name": "_isYes",
          "type": "bool"
        },
        {
          "internalType": "uint256",
          "name": "_amount",
          "type": "uint256"
        }
      ],
      "name": "placeBet",
      "outputs": [],
      "stateMutability": "nonpayable",
      "type": "function"
    },
    {
      "inputs": [],
      "name": "platformFee",
      "outputs": [
        {
          "internalType": "uint256",
          "name": "",
          "type": "uint256"
        }
      ],
      "stateMutability": "view",
      "type": "function"
    },
    {
      "inputs": [
        {
          "internalType": "uint256",
          "name": "",
          "type": "uint256"
        },
        {
          "internalType": "address",
          "name": "",
          "type": "address"
        }
      ],
      "name": "positions",
      "outputs": [
        {
          "internalType": "uint256",
          "name": "yesAmount",
          "type": "uint256"
        },
        {
          "internalType": "uint256",
          "name": "noAmount",
          "type": "uint256"
        },
        {
          "internalType": "bool",
          "name": "claimed",
          "type": "bool"
        }
      ],
      "stateMutability": "view",
      "type": "function"
    },
    {
      "inputs": [],
      "name": "renounceOwnership",
      "outputs": [],
      "stateMutability": "nonpayable",
      "type": "function"
    },
    {
      "inputs": [
        {
          "internalType": "uint256",
          "name": "_marketId",
          "type": "uint256"
        },
        {
          "internalType": "uint8",
          "name": "_outcome",
          "type": "uint8"
        }
      ],
      "name": "resolveMarket",
      "outputs": [],
      "stateMutability": "nonpayable",
      "type": "function"
    },
    {
      "inputs": [
        {
          "internalType": "address",
          "name": "_token",
          "type": "address"
        },
        {
          "internalType": "bool",
          "name": "_allowed",
          "type": "bool"
        }
      ],
      "name": "setAllowedToken",
      "outputs": [],
      "stateMutability": "nonpayable",
      "type": "function"
    },
    {
      "inputs": [
        {
          "internalType": "uint256",
          "name": "_fee",
          "type": "uint256"
        }
      ],
      "name": "setPlatformFee",
      "outputs": [],
      "stateMutability": "nonpayable",
      "type": "function"
    },
    {
      "inputs": [
        {
          "internalType": "address",
          "name": "_treasury",
          "type": "address"
        }
      ],
      "name": "setTreasury",
      "outputs": [],
      "stateMutability": "nonpayable",
      "type": "function"
    },
    {
      "inputs": [
        {
          "internalType": "address",
          "name": "newOwner",
          "type": "address"
        }
      ],
      "name": "transferOwnership",
      "outputs": [],
      "stateMutability": "nonpayable",
      "type": "function"
    },
    {
      "inputs": [],
      "name": "treasury",
      "outputs": [
        {
          "internalType": "address",
          "name": "",
          "type": "address"
        }
      ],
      "stateMutability": "view",
      "type": "function"
    },
    {
      "inputs": [],
      "name": "unpause",
      "outputs": [],
      "stateMutability": "nonpayable",
      "type": "function"
    }
  ],
  "bytecode": "0x608060405261012c60025534801562000016575f80fd5b5060405162001ecd38038062001ecd833981016040819052620000399162000168565b33806200006057604051631e4fbdf760e01b81525f60048201526024015b60405180910390fd5b6200006b8162000119565b5060017f9b779b17422d0df92223018b32b4d1fa46e071723d6817e2486d003becc55f00556001600160a01b038116620000f35760405162461bcd60e51b815260206004820152602260248201527f5472656173757279206e616f20706f6465207365722061646472657373207a65604482015261726f60f01b606482015260840162000057565b600380546001600160a01b0319166001600160a01b039290921691909117905562000197565b5f80546001600160a01b038381166001600160a01b0319831681178455604051919092169283917f8be0079c531659141344cd1fd0a4f28419497f9722a3daafe3b4186f6b6457e09190a35050565b5f6020828403121562000179575f80fd5b81516001600160a01b038116811462000190575f80fd5b9392505050565b611d2880620001a55f395ff3fe608060405234801561000f575f80fd5b5060043610610148575f3560e01c80638456cb59116100bf578063e684d71811610079578063e684d718146102c5578063e744092e1461031e578063ec97908214610340578063f0f4426014610349578063f15cc4061461035c578063f2fde38b1461036f575f80fd5b80638456cb59146102495780638aaa2284146102515780638da5cb5b14610264578063a794f67e14610274578063b1283e7714610287578063df55406e146102b2575f80fd5b80635b7baf64116101105780635b7baf64146101c05780635c975abb146101d357806361d027b3146101f0578063677bd9ff1461021b578063715018a61461022e5780637c16cd9e14610236575f80fd5b8063126c41661461014c57806312e8e2c3146101795780631a38cac61461018e57806326232a2e146101a15780633f4ba83a146101b8575b5f80fd5b61015f61015a366004611785565b610382565b604080519283526020830191909152015b60405180910390f35b61018c610187366004611785565b61045f565b005b61018c61019c3660046117b0565b6104ad565b6101aa60025481565b604051908152602001610170565b61018c610703565b61018c6101ce366004611785565b610715565b5f54600160a01b900460ff165b6040519015158152602001610170565b600354610203906001600160a01b031681565b6040516001600160a01b039091168152602001610170565b61018c610229366004611785565b61089a565b61018c610a89565b61018c610244366004611785565b610a9a565b61018c610b5c565b61018c61025f3660046117f8565b610b6c565b5f546001600160a01b0316610203565b6101aa6102823660046118c6565b610b9e565b61029a610295366004611785565b610e78565b6040516101709c9b9a999897969594939291906119b7565b61018c6102c0366004611a4a565b611077565b6103016102d3366004611a7d565b600560209081525f928352604080842090915290825290208054600182015460029092015490919060ff1683565b604080519384526020840192909252151590820152606001610170565b6101e061032c366004611a9e565b60066020525f908152604090205460ff1681565b6101aa60015481565b61018c610357366004611a9e565b6112a8565b6101aa61036a366004611a7d565b611333565b61018c61037d366004611a9e565b61145d565b5f8181526004602052604081206005810154600682015483929190811580156103a9575080155b156103bd5750614e20958695509350505050565b815f036103d357505f9561271095509350505050565b805f036103e95750612710955f95509350505050565b5f6002546127106103fa9190611ad2565b9050826104078284611ae5565b61041385612710611ae5565b61041d9190611afc565b6104279190611b0f565b9550816104348285611ae5565b61044084612710611ae5565b61044a9190611afc565b6104549190611b0f565b945050505050915091565b610467611497565b6103e88111156104a85760405162461bcd60e51b81526020600482015260076024820152664d61782031302560c81b60448201526064015b60405180910390fd5b600255565b6104b56114c3565b6104bd6114de565b5f83815260046020526040812080549091036104eb5760405162461bcd60e51b815260040161049f90611b2e565b6007810154610100900460ff16156105355760405162461bcd60e51b815260206004820152600d60248201526c13585c9ad95d0818db1bdcd959609a1b604482015260640161049f565b806004015442106105775760405162461bcd60e51b815260206004820152600c60248201526b13585c9ad95d08195b99195960a21b604482015260640161049f565b80600801548210156105bb5760405162461bcd60e51b815260206004820152600d60248201526c42656c6f77206d696e696d756d60981b604482015260640161049f565b80600901548211156105ff5760405162461bcd60e51b815260206004820152600d60248201526c41626f7665206d6178696d756d60981b604482015260640161049f565b600781015461061f906201000090046001600160a01b0316333085611508565b5f848152600560209081526040808320338452909152902083156106745782815f015f82825461064f9190611afc565b9250508190555082826005015f8282546106699190611afc565b909155506106a79050565b82816001015f8282546106879190611afc565b9250508190555082826006015f8282546106a19190611afc565b90915550505b60408051851515815260208101859052339187917f4af71b021e799c62c158bd54636ca8da2fa26115a21a2dc6efe486ec104fd15f910160405180910390a350506106fe60015f80516020611cd383398151915255565b505050565b61070b611497565b610713611544565b565b61071d6114c3565b5f818152600460205260408120805490910361074b5760405162461bcd60e51b815260040161049f90611b2e565b600781015460ff166003146107995760405162461bcd60e51b815260206004820152601460248201527313585c9ad95d081b9bdd0818d85b98d95b1b195960621b604482015260640161049f565b5f8281526005602090815260408083203384529091529020600281015460ff16156107f85760405162461bcd60e51b815260206004820152600f60248201526e105b1c9958591e4818db185a5b5959608a1b604482015260640161049f565b60028101805460ff1916600190811790915581015481545f9161081a91611afc565b90505f811161085f5760405162461bcd60e51b8152602060048201526011602482015270139bdd1a1a5b99c81d1bc81c99599d5b99607a1b604482015260640161049f565b600783015461087e906201000090046001600160a01b03163383611598565b50505061089760015f80516020611cd383398151915255565b50565b6108a26114c3565b5f81815260046020526040812080549091036108d05760405162461bcd60e51b815260040161049f90611b2e565b6007810154610100900460ff166109185760405162461bcd60e51b815260206004820152600c60248201526b139bdd081c995cdbdb1d995960a21b604482015260640161049f565b600781015460ff166003036109625760405162461bcd60e51b815260206004820152601060248201526f13585c9ad95d0818d85b98d95b1b195960821b604482015260640161049f565b5f8281526005602090815260408083203384529091529020600281015460ff16156109c15760405162461bcd60e51b815260206004820152600f60248201526e105b1c9958591e4818db185a5b5959608a1b604482015260640161049f565b60028101805460ff191660011790555f6109db8433611333565b90505f8111610a1a5760405162461bcd60e51b815260206004820152600b60248201526a4e6f2077696e6e696e677360a81b604482015260640161049f565b6007830154610a39906201000090046001600160a01b03163383611598565b604051818152339085907f5380cf6fe903b40c6d5a9e0dfbca2f3a423f0a21520b4d5947ed5169bdba946d9060200160405180910390a350505061089760015f80516020611cd383398151915255565b610a91611497565b6107135f6115cd565b610aa2611497565b5f8181526004602052604081208054909103610ad05760405162461bcd60e51b815260040161049f90611b2e565b6007810154610100900460ff1615610b1d5760405162461bcd60e51b815260206004820152601060248201526f105b1c9958591e481c995cdbdb1d995960821b604482015260640161049f565b60078101805461ffff191661010317905560405182907f2ca440fb7fca85d7f55d395a4abd94817330b83a62f3502efbb4770144e4ca97905f90a25050565b610b64611497565b61071361161c565b610b74611497565b6001600160a01b03919091165f908152600660205260409020805460ff1916911515919091179055565b5f610ba7611497565b610bb342610e10611afc565b8511610bf55760405162461bcd60e51b815260206004820152601160248201527022b732103a34b6b2903a37b79039b7b7b760791b604482015260640161049f565b6001600160a01b0384165f9081526006602052604090205460ff16610c505760405162461bcd60e51b8152602060048201526011602482015270151bdad95b881b9bdd08185b1b1bddd959607a1b604482015260640161049f565b5f8311610c915760405162461bcd60e51b815260206004820152600f60248201526e125b9d985b1a59081b5a5b8818995d608a1b604482015260640161049f565b82821015610cd35760405162461bcd60e51b815260206004820152600f60248201526e125b9d985b1a59081b585e0818995d608a1b604482015260640161049f565b60018054905f610ce283611b58565b919050555060405180610180016040528060015481526020018981526020018881526020018781526020018681526020015f81526020015f81526020015f60ff1681526020015f15158152602001856001600160a01b031681526020018481526020018381525060045f60015481526020019081526020015f205f820151815f01556020820151816001019081610d799190611bf5565b5060408201516002820190610d8e9082611bf5565b5060608201516003820190610da39082611bf5565b506080820151600482015560a0820151600582015560c0820151600682015560e08201516007820180546101008086015161012087015160ff90951661ffff1990931692909217911515021762010000600160b01b031916620100006001600160a01b03909316929092029190911790556101408201516008820155610160909101516009909101556001546040517f2d1e9ad45dbe8e898e0374deebf2a661b2ae7c1855d2a29507d584c35d287c7590610e61908b908990611cb1565b60405180910390a250600154979650505050505050565b60046020525f908152604090208054600182018054919291610e9990611b70565b80601f0160208091040260200160405190810160405280929190818152602001828054610ec590611b70565b8015610f105780601f10610ee757610100808354040283529160200191610f10565b820191905f5260205f20905b815481529060010190602001808311610ef357829003601f168201915b505050505090806002018054610f2590611b70565b80601f0160208091040260200160405190810160405280929190818152602001828054610f5190611b70565b8015610f9c5780601f10610f7357610100808354040283529160200191610f9c565b820191905f5260205f20905b815481529060010190602001808311610f7f57829003601f168201915b505050505090806003018054610fb190611b70565b80601f0160208091040260200160405190810160405280929190818152602001828054610fdd90611b70565b80156110285780601f10610fff57610100808354040283529160200191611028565b820191905f5260205f20905b81548152906001019060200180831161100b57829003601f168201915b505050506004830154600584015460068501546007860154600887015460099097015495969395929450909260ff808316936101008404909116926201000090046001600160a01b031691908c565b61107f611497565b5f82815260046020526040812080549091036110ad5760405162461bcd60e51b815260040161049f90611b2e565b6007810154610100900460ff16156110fa5760405162461bcd60e51b815260206004820152601060248201526f105b1c9958591e481c995cdbdb1d995960821b604482015260640161049f565b80600401544210156111415760405162461bcd60e51b815260206004820152601060248201526f13585c9ad95d081b9bdd08195b99195960821b604482015260640161049f565b6005810154158061115457506006810154155b156111995760078101805461ffff191661010317905560405183907f2ca440fb7fca85d7f55d395a4abd94817330b83a62f3502efbb4770144e4ca97905f90a2505050565b8160ff16600114806111ae57508160ff166002145b6111ec5760405162461bcd60e51b815260206004820152600f60248201526e496e76616c6964206f7574636f6d6560881b604482015260640161049f565b60078101805461ffff191660ff8416908117610100179091555f9060011461121857816005015461121e565b81600601545b90505f612710600254836112329190611ae5565b61123c9190611b0f565b90508015611269576003546007840154611269916001600160a01b03620100009092048216911683611598565b60405160ff8516815285907f739f283563fb51ab6b89ee95d937b2e63a6cfcb83c385dbebb629f9d97bd43e69060200160405180910390a25050505050565b6112b0611497565b6001600160a01b0381166113115760405162461bcd60e51b815260206004820152602260248201527f5472656173757279206e616f20706f6465207365722061646472657373207a65604482015261726f60f01b606482015260840161049f565b600380546001600160a01b0319166001600160a01b0392909216919091179055565b5f828152600460209081526040808320600583528184206001600160a01b038616855290925282206007820154610100900460ff16158061137b5750600782015460ff166003145b1561138a575f92505050611457565b60078201545f9060ff166001146113a55781600101546113a8565b81545b9050805f036113bc575f9350505050611457565b60078301545f9060ff166001146113d75783600601546113dd565b83600501545b60078501549091505f9060ff166001146113fb578460050154611401565b84600601545b90505f612710600254836114159190611ae5565b61141f9190611b0f565b90505f61142c8284611ad2565b9050836114398287611ae5565b6114439190611b0f565b61144d9086611afc565b9750505050505050505b92915050565b611465611497565b6001600160a01b03811661148e57604051631e4fbdf760e01b81525f600482015260240161049f565b610897816115cd565b5f546001600160a01b031633146107135760405163118cdaa760e01b815233600482015260240161049f565b6114cb61165e565b60025f80516020611cd383398151915255565b5f54600160a01b900460ff16156107135760405163d93c066560e01b815260040160405180910390fd5b61151684848484600161168d565b61153e57604051635274afe760e01b81526001600160a01b038516600482015260240161049f565b50505050565b61154c6116fa565b5f805460ff60a01b191690557f5db9ee0a495bf2e6ff9c91a7834c1ba4fdd244a5e8aa4e537bd38aeae4b073aa335b6040516001600160a01b03909116815260200160405180910390a1565b6115a58383836001611723565b6106fe57604051635274afe760e01b81526001600160a01b038416600482015260240161049f565b5f80546001600160a01b038381166001600160a01b0319831681178455604051919092169283917f8be0079c531659141344cd1fd0a4f28419497f9722a3daafe3b4186f6b6457e09190a35050565b6116246114de565b5f805460ff60a01b1916600160a01b1790557f62e78cea01bee320cd4e420270b5ea74000d11b0c9f74754ebdbfc544b05a25861157b3390565b5f80516020611cd38339815191525460020361071357604051633ee5aeb560e01b815260040160405180910390fd5b6040516323b872dd60e01b5f8181526001600160a01b038781166004528616602452604485905291602083606481808c5af1925060015f511483166116e95783831516156116dd573d5f823e3d81fd5b5f883b113d1516831692505b604052505f60605295945050505050565b5f54600160a01b900460ff1661071357604051638dfc202b60e01b815260040160405180910390fd5b60405163a9059cbb60e01b5f8181526001600160a01b038616600452602485905291602083604481808b5af1925060015f5114831661177957838315161561176d573d5f823e3d81fd5b5f873b113d1516831692505b60405250949350505050565b5f60208284031215611795575f80fd5b5035919050565b803580151581146117ab575f80fd5b919050565b5f805f606084860312156117c2575f80fd5b833592506117d26020850161179c565b9150604084013590509250925092565b80356001600160a01b03811681146117ab575f80fd5b5f8060408385031215611809575f80fd5b611812836117e2565b91506118206020840161179c565b90509250929050565b634e487b7160e01b5f52604160045260245ffd5b5f82601f83011261184c575f80fd5b813567ffffffffffffffff8082111561186757611867611829565b604051601f8301601f19908116603f0116810190828211818310171561188f5761188f611829565b816040528381528660208588010111156118a7575f80fd5b836020870160208301375f602085830101528094505050505092915050565b5f805f805f805f60e0888a0312156118dc575f80fd5b873567ffffffffffffffff808211156118f3575f80fd5b6118ff8b838c0161183d565b985060208a0135915080821115611914575f80fd5b6119208b838c0161183d565b975060408a0135915080821115611935575f80fd5b506119428a828b0161183d565b95505060608801359350611958608089016117e2565b925060a0880135915060c0880135905092959891949750929550565b5f81518084525f5b818110156119985760208185018101518683018201520161197c565b505f602082860101526020601f19601f83011685010191505092915050565b5f6101808e83528060208401526119d08184018f611974565b905082810360408401526119e4818e611974565b905082810360608401526119f8818d611974565b608084019b909b52505060a081019790975260c087019590955260ff9390931660e08601529015156101008501526001600160a01b031661012084015261014083015261016090910152949350505050565b5f8060408385031215611a5b575f80fd5b82359150602083013560ff81168114611a72575f80fd5b809150509250929050565b5f8060408385031215611a8e575f80fd5b82359150611820602084016117e2565b5f60208284031215611aae575f80fd5b611ab7826117e2565b9392505050565b634e487b7160e01b5f52601160045260245ffd5b8181038181111561145757611457611abe565b808202811582820484141761145757611457611abe565b8082018082111561145757611457611abe565b5f82611b2957634e487b7160e01b5f52601260045260245ffd5b500490565b60208082526010908201526f13585c9ad95d081b9bdd08199bdd5b9960821b604082015260600190565b5f60018201611b6957611b69611abe565b5060010190565b600181811c90821680611b8457607f821691505b602082108103611ba257634e487b7160e01b5f52602260045260245ffd5b50919050565b601f8211156106fe575f81815260208120601f850160051c81016020861015611bce5750805b601f850160051c820191505b81811015611bed57828155600101611bda565b505050505050565b815167ffffffffffffffff811115611c0f57611c0f611829565b611c2381611c1d8454611b70565b84611ba8565b602080601f831160018114611c56575f8415611c3f5750858301515b5f19600386901b1c1916600185901b178555611bed565b5f85815260208120601f198616915b82811015611c8457888601518255948401946001909101908401611c65565b5085821015611ca157878501515f19600388901b60f8161c191681555b5050505050600190811b01905550565b604081525f611cc36040830185611974565b9050826020830152939250505056fe9b779b17422d0df92223018b32b4d1fa46e071723d6817e2486d003becc55f00a2646970667358221220a21aeaeb39e41a6d7f2ac44b68c641a6f16e07041f439417bba6d56309a27ff864736f6c63430008140033",
  "linkReferences": {},
  "deployedLinkReferences": {},
  "immutableReferences": {},
  "inputSourceName": "project/src/contracts-p2/PredictionMarket.sol",
  "buildInfoId": "solc-0_8_20-8556383b17aea3cd540f01f34d633db4fe3026f3"
}