{
  "_format": "hh3-artifact-1",
  "contractName": "PredictionMarket",
  "sourceName": "src/contracts-p2/PredictionMarket.sol",
  "abi": [
    {
      "inputs": [
        {
          "internalType": "address",
          "name": "_treasury",
          "type": "address"
        }
      ],
      "stateMutability": "nonpayable",
      "type": "constructor"
    },
    {
      "inputs": [],
      "name": "EnforcedPause",
      "type": "error"
    },
    {
      "inputs": [],
      "name": "ExpectedPause",
      "type": "error"
    },
    {
      "inputs": [
        {
          "internalType": "address",
          "name": "owner",
          "type": "address"
        }
      ],
      "name": "OwnableInvalidOwner",
      "type": "error"
    },
    {
      "inputs": [
        {
          "internalType": "address",
          "name": "account",
          "type": "address"
        }
      ],
      "name": "OwnableUnauthorizedAccount",
      "type": "error"
    },
    {
      "inputs": [],
      "name": "ReentrancyGuardReentrantCall",
      "type": "error"
    },
    {
      "anonymous": false,
      "inputs": [
        {
          "indexed": true,
          "internalType": "uint256",
          "name": "marketId",
          "type": "uint256"
        },
        {
          "indexed": true,
          "internalType": "address",
          "name": "user",
          "type": "address"
        },
        {
          "indexed": false,
          "internalType": "bool",
          "name": "isYes",
          "type": "bool"
        },
        {
          "indexed": false,
          "internalType": "uint256",
          "name": "amount",
          "type": "uint256"
        }
      ],
      "name": "BetPlaced",
      "type": "event"
    },
    {
      "anonymous": false,
      "inputs": [
        {
          "indexed": true,
          "internalType": "uint256",
          "name": "marketId",
          "type": "uint256"
        }
      ],
      "name": "MarketCancelled",
      "type": "event"
    },
    {
      "anonymous": false,
      "inputs": [
        {
          "indexed": true,
          "internalType": "uint256",
          "name": "marketId",
          "type": "uint256"
        },
        {
          "indexed": false,
          "internalType": "string",
          "name": "question",
          "type": "string"
        },
        {
          "indexed": false,
          "internalType": "uint256",
          "name": "endTime",
          "type": "uint256"
        }
      ],
      "name": "MarketCreated",
      "type": "event"
    },
    {
      "anonymous": false,
      "inputs": [
        {
          "indexed": true,
          "internalType": "uint256",
          "name": "marketId",
          "type": "uint256"
        },
        {
          "indexed": false,
          "internalType": "uint8",
          "name": "outcome",
          "type": "uint8"
        }
      ],
      "name": "MarketResolved",
      "type": "event"
    },
    {
      "anonymous": false,
      "inputs": [
        {
          "indexed": true,
          "internalType": "address",
          "name": "previousOwner",
          "type": "address"
        },
        {
          "indexed": true,
          "internalType": "address",
          "name": "newOwner",
          "type": "address"
        }
      ],
      "name": "OwnershipTransferred",
      "type": "event"
    },
    {
      "anonymous": false,
      "inputs": [
        {
          "indexed": false,
          "internalType": "address",
          "name": "account",
          "type": "address"
        }
      ],
      "name": "Paused",
      "type": "event"
    },
    {
      "anonymous": false,
      "inputs": [
        {
          "indexed": false,
          "internalType": "address",
          "name": "account",
          "type": "address"
        }
      ],
      "name": "Unpaused",
      "type": "event"
    },
    {
      "anonymous": false,
      "inputs": [
        {
          "indexed": true,
          "internalType": "uint256",
          "name": "marketId",
          "type": "uint256"
        },
        {
          "indexed": true,
          "internalType": "address",
          "name": "user",
          "type": "address"
        },
        {
          "indexed": false,
          "internalType": "uint256",
          "name": "amount",
          "type": "uint256"
        }
      ],
      "name": "WinningsClaimed",
      "type": "event"
    },
    {
      "inputs": [
        {
          "internalType": "address",
          "name": "",
          "type": "address"
        }
      ],
      "name": "allowedTokens",
      "outputs": [
        {
          "internalType": "bool",
          "name": "",
          "type": "bool"
        }
      ],
      "stateMutability": "view",
      "type": "function"
    },
    {
      "inputs": [
        {
          "internalType": "uint256",
          "name": "_marketId",
          "type": "uint256"
        },
        {
          "internalType": "address",
          "name": "_user",
          "type": "address"
        }
      ],
      "name": "calculateWinnings",
      "outputs": [
        {
          "internalType": "uint256",
          "name": "",
          "type": "uint256"
        }
      ],
      "stateMutability": "view",
      "type": "function"
    },
    {
      "inputs": [
        {
          "internalType": "uint256",
          "name": "_marketId",
          "type": "uint256"
        }
      ],
      "name": "cancelMarket",
      "outputs": [],
      "stateMutability": "nonpayable",
      "type": "function"
    },
    {
      "inputs": [
        {
          "internalType": "uint256",
          "name": "_marketId",
          "type": "uint256"
        }
      ],
      "name": "claimRefund",
      "outputs": [],
      "stateMutability": "nonpayable",
      "type": "function"
    },
    {
      "inputs": [
        {
          "internalType": "uint256",
          "name": "_marketId",
          "type": "uint256"
        }
      ],
      "name": "claimWinnings",
      "outputs": [],
      "stateMutability": "nonpayable",
      "type": "function"
    },
    {
      "inputs": [
        {
          "internalType": "string",
          "name": "_question",
          "type": "string"
        },
        {
          "internalType": "string",
          "name": "_description",
          "type": "string"
        },
        {
          "internalType": "string",
          "name": "_category",
          "type": "string"
        },
        {
          "internalType": "uint256",
          "name": "_endTime",
          "type": "uint256"
        },
        {
          "internalType": "address",
          "name": "_token",
          "type": "address"
        },
        {
          "internalType": "uint256",
          "name": "_minBet",
          "type": "uint256"
        },
        {
          "internalType": "uint256",
          "name": "_maxBet",
          "type": "uint256"
        }
      ],
      "name": "createMarket",
      "outputs": [
        {
          "internalType": "uint256",
          "name": "",
          "type": "uint256"
        }
      ],
      "stateMutability": "nonpayable",
      "type": "function"
    },
    {
      "inputs": [
        {
          "internalType": "uint256",
          "name": "_marketId",
          "type": "uint256"
        }
      ],
      "name": "getOdds",
      "outputs": [
        {
          "internalType": "uint256",
          "name": "yesOdds",
          "type": "uint256"
        },
        {
          "internalType": "uint256",
          "name": "noOdds",
          "type": "uint256"
        }
      ],
      "stateMutability": "view",
      "type": "function"
    },
    {
      "inputs": [],
      "name": "marketCount",
      "outputs": [
        {
          "internalType": "uint256",
          "name": "",
          "type": "uint256"
        }
      ],
      "stateMutability": "view",
      "type": "function"
    },
    {
      "inputs": [
        {
          "internalType": "uint256",
          "name": "",
          "type": "uint256"
        }
      ],
      "name": "markets",
      "outputs": [
        {
          "internalType": "uint256",
          "name": "id",
          "type": "uint256"
        },
        {
          "internalType": "string",
          "name": "question",
          "type": "string"
        },
        {
          "internalType": "string",
          "name": "description",
          "type": "string"
        },
        {
          "internalType": "string",
          "name": "category",
          "type": "string"
        },
        {
          "internalType": "uint256",
          "name": "endTime",
          "type": "uint256"
        },
        {
          "internalType": "uint256",
          "name": "totalYesAmount",
          "type": "uint256"
        },
        {
          "internalType": "uint256",
          "name": "totalNoAmount",
          "type": "uint256"
        },
        {
          "internalType": "uint8",
          "name": "outcome",
          "type": "uint8"
        },
        {
          "internalType": "bool",
          "name": "resolved",
          "type": "bool"
        },
        {
          "internalType": "address",
          "name": "token",
          "type": "address"
        },
        {
          "internalType": "uint256",
          "name": "minBet",
          "type": "uint256"
        },
        {
          "internalType": "uint256",
          "name": "maxBet",
          "type": "uint256"
        }
      ],
      "stateMutability": "view",
      "type": "function"
    },
    {
      "inputs": [],
      "name": "owner",
      "outputs": [
        {
          "internalType": "address",
          "name": "",
          "type": "address"
        }
      ],
      "stateMutability": "view",
      "type": "function"
    },
    {
      "inputs": [],
      "name": "pause",
      "outputs": [],
      "stateMutability": "nonpayable",
      "type": "function"
    },
    {
      "inputs": [],
      "name": "paused",
      "outputs": [
        {
          "internalType": "bool",
          "name": "",
          "type": "bool"
        }
      ],
      "stateMutability": "view",
      "type": "function"
    },
    {
      "inputs": [
        {
          "internalType": "uint256",
          "name": "_marketId",
          "type": "uint256"
        },
        {
          "internalType": "bool",
          "name": "_isYes",
          "type": "bool"
        },
        {
          "internalType": "uint256",
          "name": "_amount",
          "type": "uint256"
        }
      ],
      "name": "placeBet",
      "outputs": [],
      "stateMutability": "nonpayable",
      "type": "function"
    },
    {
      "inputs": [],
      "name": "platformFee",
      "outputs": [
        {
          "internalType": "uint256",
          "name": "",
          "type": "uint256"
        }
      ],
      "stateMutability": "view",
      "type": "function"
    },
    {
      "inputs": [
        {
          "internalType": "uint256",
          "name": "",
          "type": "uint256"
        },
        {
          "internalType": "address",
          "name": "",
          "type": "address"
        }
      ],
      "name": "positions",
      "outputs": [
        {
          "internalType": "uint256",
          "name": "yesAmount",
          "type": "uint256"
        },
        {
          "internalType": "uint256",
          "name": "noAmount",
          "type": "uint256"
        },
        {
          "internalType": "bool",
          "name": "claimed",
          "type": "bool"
        }
      ],
      "stateMutability": "view",
      "type": "function"
    },
    {
      "inputs": [],
      "name": "renounceOwnership",
      "outputs": [],
      "stateMutability": "nonpayable",
      "type": "function"
    },
    {
      "inputs": [
        {
          "internalType": "uint256",
          "name": "_marketId",
          "type": "uint256"
        },
        {
          "internalType": "uint8",
          "name": "_outcome",
          "type": "uint8"
        }
      ],
      "name": "resolveMarket",
      "outputs": [],
      "stateMutability": "nonpayable",
      "type": "function"
    },
    {
      "inputs": [
        {
          "internalType": "address",
          "name": "_token",
          "type": "address"
        },
        {
          "internalType": "bool",
          "name": "_allowed",
          "type": "bool"
        }
      ],
      "name": "setAllowedToken",
      "outputs": [],
      "stateMutability": "nonpayable",
      "type": "function"
    },
    {
      "inputs": [
        {
          "internalType": "uint256",
          "name": "_fee",
          "type": "uint256"
        }
      ],
      "name": "setPlatformFee",
      "outputs": [],
      "stateMutability": "nonpayable",
      "type": "function"
    },
    {
      "inputs": [
        {
          "internalType": "address",
          "name": "_treasury",
          "type": "address"
        }
      ],
      "name": "setTreasury",
      "outputs": [],
      "stateMutability": "nonpayable",
      "type": "function"
    },
    {
      "inputs": [
        {
          "internalType": "address",
          "name": "newOwner",
          "type": "address"
        }
      ],
      "name": "transferOwnership",
      "outputs": [],
      "stateMutability": "nonpayable",
      "type": "function"
    },
    {
      "inputs": [],
      "name": "treasury",
      "outputs": [
        {
          "internalType": "address",
          "name": "",
          "type": "address"
        }
      ],
      "stateMutability": "view",
      "type": "function"
    },
    {
      "inputs": [],
      "name": "unpause",
      "outputs": [],
      "stateMutability": "nonpayable",
      "type": "function"
    }
  ],
  "bytecode": "0x608060405261012c60025534801562000016575f80fd5b5060405162001d9338038062001d93833981016040819052620000399162000104565b33806200005f57604051631e4fbdf760e01b81525f600482015260240160405180910390fd5b6200006a81620000b5565b5060017f9b779b17422d0df92223018b32b4d1fa46e071723d6817e2486d003becc55f0055600380546001600160a01b0319166001600160a01b039290921691909117905562000133565b5f80546001600160a01b038381166001600160a01b0319831681178455604051919092169283917f8be0079c531659141344cd1fd0a4f28419497f9722a3daafe3b4186f6b6457e09190a35050565b5f6020828403121562000115575f80fd5b81516001600160a01b03811681146200012c575f80fd5b9392505050565b611c5280620001415f395ff3fe608060405234801561000f575f80fd5b5060043610610148575f3560e01c80638456cb59116100bf578063e684d71811610079578063e684d718146102c5578063e744092e1461031e578063ec97908214610340578063f0f4426014610349578063f15cc4061461035c578063f2fde38b1461036f575f80fd5b80638456cb59146102495780638aaa2284146102515780638da5cb5b14610264578063a794f67e14610274578063b1283e7714610287578063df55406e146102b2575f80fd5b80635b7baf64116101105780635b7baf64146101c05780635c975abb146101d357806361d027b3146101f0578063677bd9ff1461021b578063715018a61461022e5780637c16cd9e14610236575f80fd5b8063126c41661461014c57806312e8e2c3146101795780631a38cac61461018e57806326232a2e146101a15780633f4ba83a146101b8575b5f80fd5b61015f61015a366004611691565b610382565b604080519283526020830191909152015b60405180910390f35b61018c610187366004611691565b6103f3565b005b61018c61019c3660046116b5565b610441565b6101aa60025481565b604051908152602001610170565b61018c6106f7565b61018c6101ce366004611691565b610709565b5f54600160a01b900460ff165b6040519015158152602001610170565b600354610203906001600160a01b031681565b6040516001600160a01b039091168152602001610170565b61018c610229366004611691565b6108e9565b61018c610b33565b61018c610244366004611691565b610b44565b61018c610c06565b61018c61025f366004611705565b610c16565b5f546001600160a01b0316610203565b6101aa6102823660046117d7565b610c48565b61029a610295366004611691565b610f22565b6040516101709c9b9a999897969594939291906118c8565b61018c6102c036600461195b565b611121565b6103016102d3366004611983565b600560209081525f928352604080842090915290825290208054600182015460029092015490919060ff1683565b604080519384526020840192909252151590820152606001610170565b6101e061032c3660046119ad565b60066020525f908152604090205460ff1681565b6101aa60015481565b61018c6103573660046119ad565b611355565b6101aa61036a366004611983565b61137f565b61018c61037d3660046119ad565b6114a9565b5f8181526004602052604081206006810154600582015483929183916103a891906119e1565b9050805f036103bf57506113889485945092505050565b8082600501546127106103d291906119f4565b6103dc9190611a0b565b93506103ea84612710611a2a565b92505050915091565b6103fb6114e3565b6103e881111561043c5760405162461bcd60e51b81526020600482015260076024820152664d61782031302560c81b60448201526064015b60405180910390fd5b600255565b61044961150f565b61045161152a565b5f838152600460205260408120805490910361047f5760405162461bcd60e51b815260040161043390611a3d565b6007810154610100900460ff16156104c95760405162461bcd60e51b815260206004820152600d60248201526c13585c9ad95d0818db1bdcd959609a1b6044820152606401610433565b8060040154421061050b5760405162461bcd60e51b815260206004820152600c60248201526b13585c9ad95d08195b99195960a21b6044820152606401610433565b806008015482101561054f5760405162461bcd60e51b815260206004820152600d60248201526c42656c6f77206d696e696d756d60981b6044820152606401610433565b80600901548211156105935760405162461bcd60e51b815260206004820152600d60248201526c41626f7665206d6178696d756d60981b6044820152606401610433565b60078101546040516323b872dd60e01b815233600482015230602482015260448101849052620100009091046001600160a01b0316906323b872dd906064016020604051808303815f875af11580156105ee573d5f803e3d5ffd5b505050506040513d601f19601f820116820180604052508101906106129190611a67565b505f848152600560209081526040808320338452909152902083156106685782815f015f82825461064391906119e1565b9250508190555082826005015f82825461065d91906119e1565b9091555061069b9050565b82816001015f82825461067b91906119e1565b9250508190555082826006015f82825461069591906119e1565b90915550505b60408051851515815260208101859052339187917f4af71b021e799c62c158bd54636ca8da2fa26115a21a2dc6efe486ec104fd15f910160405180910390a350506106f260015f80516020611bfd83398151915255565b505050565b6106ff6114e3565b610707611554565b565b61071161150f565b5f818152600460205260408120805490910361073f5760405162461bcd60e51b815260040161043390611a3d565b600781015460ff1660031461078d5760405162461bcd60e51b815260206004820152601460248201527313585c9ad95d081b9bdd0818d85b98d95b1b195960621b6044820152606401610433565b5f8281526005602090815260408083203384529091529020600281015460ff16156107ec5760405162461bcd60e51b815260206004820152600f60248201526e105b1c9958591e4818db185a5b5959608a1b6044820152606401610433565b60028101805460ff1916600190811790915581015481545f9161080e916119e1565b90505f81116108535760405162461bcd60e51b8152602060048201526011602482015270139bdd1a1a5b99c81d1bc81c99599d5b99607a1b6044820152606401610433565b600783015460405163a9059cbb60e01b815233600482015260248101839052620100009091046001600160a01b03169063a9059cbb906044016020604051808303815f875af11580156108a8573d5f803e3d5ffd5b505050506040513d601f19601f820116820180604052508101906108cc9190611a67565b505050506108e660015f80516020611bfd83398151915255565b50565b6108f161150f565b5f818152600460205260408120805490910361091f5760405162461bcd60e51b815260040161043390611a3d565b6007810154610100900460ff166109675760405162461bcd60e51b815260206004820152600c60248201526b139bdd081c995cdbdb1d995960a21b6044820152606401610433565b600781015460ff166003036109b15760405162461bcd60e51b815260206004820152601060248201526f13585c9ad95d0818d85b98d95b1b195960821b6044820152606401610433565b5f8281526005602090815260408083203384529091529020600281015460ff1615610a105760405162461bcd60e51b815260206004820152600f60248201526e105b1c9958591e4818db185a5b5959608a1b6044820152606401610433565b60028101805460ff191660011790555f610a2a843361137f565b90505f8111610a695760405162461bcd60e51b815260206004820152600b60248201526a4e6f2077696e6e696e677360a81b6044820152606401610433565b600783015460405163a9059cbb60e01b815233600482015260248101839052620100009091046001600160a01b03169063a9059cbb906044016020604051808303815f875af1158015610abe573d5f803e3d5ffd5b505050506040513d601f19601f82011682018060405250810190610ae29190611a67565b50604051818152339085907f5380cf6fe903b40c6d5a9e0dfbca2f3a423f0a21520b4d5947ed5169bdba946d9060200160405180910390a35050506108e660015f80516020611bfd83398151915255565b610b3b6114e3565b6107075f6115a8565b610b4c6114e3565b5f8181526004602052604081208054909103610b7a5760405162461bcd60e51b815260040161043390611a3d565b6007810154610100900460ff1615610bc75760405162461bcd60e51b815260206004820152601060248201526f105b1c9958591e481c995cdbdb1d995960821b6044820152606401610433565b60078101805461ffff191661010317905560405182907f2ca440fb7fca85d7f55d395a4abd94817330b83a62f3502efbb4770144e4ca97905f90a25050565b610c0e6114e3565b6107076115f7565b610c1e6114e3565b6001600160a01b03919091165f908152600660205260409020805460ff1916911515919091179055565b5f610c516114e3565b610c5d42610e106119e1565b8511610c9f5760405162461bcd60e51b815260206004820152601160248201527022b732103a34b6b2903a37b79039b7b7b760791b6044820152606401610433565b6001600160a01b0384165f9081526006602052604090205460ff16610cfa5760405162461bcd60e51b8152602060048201526011602482015270151bdad95b881b9bdd08185b1b1bddd959607a1b6044820152606401610433565b5f8311610d3b5760405162461bcd60e51b815260206004820152600f60248201526e125b9d985b1a59081b5a5b8818995d608a1b6044820152606401610433565b82821015610d7d5760405162461bcd60e51b815260206004820152600f60248201526e125b9d985b1a59081b585e0818995d608a1b6044820152606401610433565b60018054905f610d8c83611a82565b919050555060405180610180016040528060015481526020018981526020018881526020018781526020018681526020015f81526020015f81526020015f60ff1681526020015f15158152602001856001600160a01b031681526020018481526020018381525060045f60015481526020019081526020015f205f820151815f01556020820151816001019081610e239190611b1f565b5060408201516002820190610e389082611b1f565b5060608201516003820190610e4d9082611b1f565b506080820151600482015560a0820151600582015560c0820151600682015560e08201516007820180546101008086015161012087015160ff90951661ffff1990931692909217911515021762010000600160b01b031916620100006001600160a01b03909316929092029190911790556101408201516008820155610160909101516009909101556001546040517f2d1e9ad45dbe8e898e0374deebf2a661b2ae7c1855d2a29507d584c35d287c7590610f0b908b908990611bdb565b60405180910390a250600154979650505050505050565b60046020525f908152604090208054600182018054919291610f4390611a9a565b80601f0160208091040260200160405190810160405280929190818152602001828054610f6f90611a9a565b8015610fba5780601f10610f9157610100808354040283529160200191610fba565b820191905f5260205f20905b815481529060010190602001808311610f9d57829003601f168201915b505050505090806002018054610fcf90611a9a565b80601f0160208091040260200160405190810160405280929190818152602001828054610ffb90611a9a565b80156110465780601f1061101d57610100808354040283529160200191611046565b820191905f5260205f20905b81548152906001019060200180831161102957829003601f168201915b50505050509080600301805461105b90611a9a565b80601f016020809104026020016040519081016040528092919081815260200182805461108790611a9a565b80156110d25780601f106110a9576101008083540402835291602001916110d2565b820191905f5260205f20905b8154815290600101906020018083116110b557829003601f168201915b505050506004830154600584015460068501546007860154600887015460099097015495969395929450909260ff808316936101008404909116926201000090046001600160a01b031691908c565b6111296114e3565b5f82815260046020526040812080549091036111575760405162461bcd60e51b815260040161043390611a3d565b6007810154610100900460ff16156111a45760405162461bcd60e51b815260206004820152601060248201526f105b1c9958591e481c995cdbdb1d995960821b6044820152606401610433565b80600401544210156111eb5760405162461bcd60e51b815260206004820152601060248201526f13585c9ad95d081b9bdd08195b99195960821b6044820152606401610433565b8160ff166001148061120057508160ff166002145b61123e5760405162461bcd60e51b815260206004820152600f60248201526e496e76616c6964206f7574636f6d6560881b6044820152606401610433565b60078101805461ffff191660ff8416908117610100179091555f9060011461126a578160050154611270565b81600601545b90505f6127106002548361128491906119f4565b61128e9190611a0b565b9050801561131657600783015460035460405163a9059cbb60e01b81526001600160a01b0391821660048201526024810184905262010000909204169063a9059cbb906044016020604051808303815f875af11580156112f0573d5f803e3d5ffd5b505050506040513d601f19601f820116820180604052508101906113149190611a67565b505b60405160ff8516815285907f739f283563fb51ab6b89ee95d937b2e63a6cfcb83c385dbebb629f9d97bd43e69060200160405180910390a25050505050565b61135d6114e3565b600380546001600160a01b0319166001600160a01b0392909216919091179055565b5f828152600460209081526040808320600583528184206001600160a01b038616855290925282206007820154610100900460ff1615806113c75750600782015460ff166003145b156113d6575f925050506114a3565b60078201545f9060ff166001146113f15781600101546113f4565b81545b9050805f03611408575f93505050506114a3565b60078301545f9060ff16600114611423578360060154611429565b83600501545b60078501549091505f9060ff1660011461144757846005015461144d565b84600601545b90505f6127106002548361146191906119f4565b61146b9190611a0b565b90505f6114788284611a2a565b90508361148582876119f4565b61148f9190611a0b565b61149990866119e1565b9750505050505050505b92915050565b6114b16114e3565b6001600160a01b0381166114da57604051631e4fbdf760e01b81525f6004820152602401610433565b6108e6816115a8565b5f546001600160a01b031633146107075760405163118cdaa760e01b8152336004820152602401610433565b611517611639565b60025f80516020611bfd83398151915255565b5f54600160a01b900460ff16156107075760405163d93c066560e01b815260040160405180910390fd5b61155c611668565b5f805460ff60a01b191690557f5db9ee0a495bf2e6ff9c91a7834c1ba4fdd244a5e8aa4e537bd38aeae4b073aa335b6040516001600160a01b03909116815260200160405180910390a1565b5f80546001600160a01b038381166001600160a01b0319831681178455604051919092169283917f8be0079c531659141344cd1fd0a4f28419497f9722a3daafe3b4186f6b6457e09190a35050565b6115ff61152a565b5f805460ff60a01b1916600160a01b1790557f62e78cea01bee320cd4e420270b5ea74000d11b0c9f74754ebdbfc544b05a25861158b3390565b5f80516020611bfd8339815191525460020361070757604051633ee5aeb560e01b815260040160405180910390fd5b5f54600160a01b900460ff1661070757604051638dfc202b60e01b815260040160405180910390fd5b5f602082840312156116a1575f80fd5b5035919050565b80151581146108e6575f80fd5b5f805f606084860312156116c7575f80fd5b8335925060208401356116d9816116a8565b929592945050506040919091013590565b80356001600160a01b0381168114611700575f80fd5b919050565b5f8060408385031215611716575f80fd5b61171f836116ea565b9150602083013561172f816116a8565b809150509250929050565b634e487b7160e01b5f52604160045260245ffd5b5f82601f83011261175d575f80fd5b813567ffffffffffffffff808211156117785761177861173a565b604051601f8301601f19908116603f011681019082821181831017156117a0576117a061173a565b816040528381528660208588010111156117b8575f80fd5b836020870160208301375f602085830101528094505050505092915050565b5f805f805f805f60e0888a0312156117ed575f80fd5b873567ffffffffffffffff80821115611804575f80fd5b6118108b838c0161174e565b985060208a0135915080821115611825575f80fd5b6118318b838c0161174e565b975060408a0135915080821115611846575f80fd5b506118538a828b0161174e565b95505060608801359350611869608089016116ea565b925060a0880135915060c0880135905092959891949750929550565b5f81518084525f5b818110156118a95760208185018101518683018201520161188d565b505f602082860101526020601f19601f83011685010191505092915050565b5f6101808e83528060208401526118e18184018f611885565b905082810360408401526118f5818e611885565b90508281036060840152611909818d611885565b608084019b909b52505060a081019790975260c087019590955260ff9390931660e08601529015156101008501526001600160a01b031661012084015261014083015261016090910152949350505050565b5f806040838503121561196c575f80fd5b82359150602083013560ff8116811461172f575f80fd5b5f8060408385031215611994575f80fd5b823591506119a4602084016116ea565b90509250929050565b5f602082840312156119bd575f80fd5b6119c6826116ea565b9392505050565b634e487b7160e01b5f52601160045260245ffd5b808201808211156114a3576114a36119cd565b80820281158282048414176114a3576114a36119cd565b5f82611a2557634e487b7160e01b5f52601260045260245ffd5b500490565b818103818111156114a3576114a36119cd565b60208082526010908201526f13585c9ad95d081b9bdd08199bdd5b9960821b604082015260600190565b5f60208284031215611a77575f80fd5b81516119c6816116a8565b5f60018201611a9357611a936119cd565b5060010190565b600181811c90821680611aae57607f821691505b602082108103611acc57634e487b7160e01b5f52602260045260245ffd5b50919050565b601f8211156106f2575f81815260208120601f850160051c81016020861015611af85750805b601f850160051c820191505b81811015611b1757828155600101611b04565b505050505050565b815167ffffffffffffffff811115611b3957611b3961173a565b611b4d81611b478454611a9a565b84611ad2565b602080601f831160018114611b80575f8415611b695750858301515b5f19600386901b1c1916600185901b178555611b17565b5f85815260208120601f198616915b82811015611bae57888601518255948401946001909101908401611b8f565b5085821015611bcb57878501515f19600388901b60f8161c191681555b5050505050600190811b01905550565b604081525f611bed6040830185611885565b9050826020830152939250505056fe9b779b17422d0df92223018b32b4d1fa46e071723d6817e2486d003becc55f00a2646970667358221220c7bf86c273ac11f3c3882b7783cd43d7039a61e5b442c83c1214fe95bcf0f7b164736f6c63430008140033",
  "linkReferences": {},
  "deployedLinkReferences": {},
  "immutableReferences": {},
  "inputSourceName": "project/src/contracts-p2/PredictionMarket.sol",
  "buildInfoId": "solc-0_8_20-a2ec061f2e23982d8efe0522373d3b10b7e94eb8"
}